{
  "contractName": "Authorization",
  "abi": [
    {
      "constant": false,
      "inputs": [],
      "name": "terminate",
      "outputs": [],
      "payable": false,
      "stateMutability": "nonpayable",
      "type": "function"
    },
    {
      "constant": false,
      "inputs": [
        {
          "name": "newOwner",
          "type": "address"
        }
      ],
      "name": "setOwner",
      "outputs": [],
      "payable": false,
      "stateMutability": "nonpayable",
      "type": "function"
    },
    {
      "constant": true,
      "inputs": [],
      "name": "owner",
      "outputs": [
        {
          "name": "",
          "type": "address"
        }
      ],
      "payable": false,
      "stateMutability": "view",
      "type": "function"
    },
    {
      "constant": true,
      "inputs": [],
      "name": "authority",
      "outputs": [
        {
          "name": "",
          "type": "address"
        }
      ],
      "payable": false,
      "stateMutability": "view",
      "type": "function"
    },
    {
      "inputs": [],
      "payable": false,
      "stateMutability": "nonpayable",
      "type": "constructor"
    }
  ],
  "bytecode": "0x6060604052341561000f57600080fd5b33600160006101000a81548173ffffffffffffffffffffffffffffffffffffffff021916908373ffffffffffffffffffffffffffffffffffffffff1602179055506103498061005f6000396000f300606060405260043610610062576000357c0100000000000000000000000000000000000000000000000000000000900463ffffffff1680630c08bf881461006757806313af40351461007c5780638da5cb5b146100b5578063bf7e214f1461010a575b600080fd5b341561007257600080fd5b61007a61015f565b005b341561008757600080fd5b6100b3600480803573ffffffffffffffffffffffffffffffffffffffff169060200190919050506101f6565b005b34156100c057600080fd5b6100c86102d2565b604051808273ffffffffffffffffffffffffffffffffffffffff1673ffffffffffffffffffffffffffffffffffffffff16815260200191505060405180910390f35b341561011557600080fd5b61011d6102f8565b604051808273ffffffffffffffffffffffffffffffffffffffff1673ffffffffffffffffffffffffffffffffffffffff16815260200191505060405180910390f35b600160009054906101000a900473ffffffffffffffffffffffffffffffffffffffff1673ffffffffffffffffffffffffffffffffffffffff163373ffffffffffffffffffffffffffffffffffffffff161415156101bb57600080fd5b600160009054906101000a900473ffffffffffffffffffffffffffffffffffffffff1673ffffffffffffffffffffffffffffffffffffffff16ff5b600160009054906101000a900473ffffffffffffffffffffffffffffffffffffffff1673ffffffffffffffffffffffffffffffffffffffff163373ffffffffffffffffffffffffffffffffffffffff1614151561025257600080fd5b600073ffffffffffffffffffffffffffffffffffffffff168173ffffffffffffffffffffffffffffffffffffffff161415151561028e57600080fd5b80600160006101000a81548173ffffffffffffffffffffffffffffffffffffffff021916908373ffffffffffffffffffffffffffffffffffffffff16021790555050565b600160009054906101000a900473ffffffffffffffffffffffffffffffffffffffff1681565b6000809054906101000a900473ffffffffffffffffffffffffffffffffffffffff16815600a165627a7a7230582080c0d688edeb2a3cdfa84c69bf7a24c2ccacf34a9b491b2bfa11ce25778f1a1f0029",
  "source": "pragma solidity ^0.4.18;\r\n\r\ncontract Authority {\r\n    function canCall(address caller, address target, bytes4 sig) public view returns (bool);\r\n}\r\n\r\ncontract Authorization {\r\n    Authority public authority;\r\n    address public owner;\r\n\r\n    function Authorization() public {\r\n        owner = msg.sender;\r\n    }\r\n\r\n    function setOwner(address newOwner) onlyOwner public {\r\n        require(newOwner != address(0));\r\n        owner = newOwner;\r\n    }\r\n\r\n    function setAuthority(Authority newAuthority) internal {\r\n        authority = newAuthority;\r\n    }\r\n\r\n    modifier onlyOwner() {\r\n        require(msg.sender == owner);\r\n        _;\r\n    }\r\n\r\n    modifier onlyAuthorized {\r\n        require(isAuthorized(msg.sender, msg.sig));\r\n        _;\r\n    }\r\n\r\n    function terminate() onlyOwner public {\r\n        selfdestruct(owner);\r\n    }\r\n\r\n    function isAuthorized(address caller, bytes4 sig) internal view returns (bool) {\r\n        if (caller == address(this)) {\r\n            return true;\r\n        } else if (caller == owner) {\r\n            return true;\r\n        } else if (authority == Authority(0)) {\r\n            return false;\r\n        } else {\r\n            return authority.canCall(caller, this, sig);\r\n        }\r\n    }\r\n}",
  "sourcePath": "C:\\Users\\Francis\\Desktop\\latude-dev-portal\\contracts\\Authorization.sol",
  "compiler": {
    "name": "solc",
    "version": "0.4.18+commit.9cf6e910.Emscripten.clang"
  },
  "schemaVersion": "1.0.1",
  "updatedAt": "2018-01-20T20:41:36.590Z"
}