{
  "contractName": "CompanyFactory",
  "abi": [
    {
      "constant": true,
      "inputs": [],
      "name": "exchangeContract",
      "outputs": [
        {
          "name": "",
          "type": "address"
        }
      ],
      "payable": false,
      "stateMutability": "view",
      "type": "function"
    },
    {
      "inputs": [
        {
          "name": "_exchangeContract",
          "type": "address"
        }
      ],
      "payable": false,
      "stateMutability": "nonpayable",
      "type": "constructor"
    },
    {
      "anonymous": false,
      "inputs": [
        {
          "indexed": false,
          "name": "company",
          "type": "address"
        }
      ],
      "name": "CompanyCreated",
      "type": "event"
    },
    {
      "constant": false,
      "inputs": [
        {
          "name": "name",
          "type": "string"
        }
      ],
      "name": "addCompany",
      "outputs": [],
      "payable": false,
      "stateMutability": "nonpayable",
      "type": "function"
    },
    {
      "constant": true,
      "inputs": [],
      "name": "getCompanies",
      "outputs": [
        {
          "name": "",
          "type": "address[]"
        }
      ],
      "payable": false,
      "stateMutability": "view",
      "type": "function"
    }
  ],
  "bytecode": "0x6060604052341561000f57600080fd5b6040516020806135c883398101604052808051906020019091905050806000806101000a81548173ffffffffffffffffffffffffffffffffffffffff021916908373ffffffffffffffffffffffffffffffffffffffff1602179055505061354d8061007b6000396000f300606060405260043610610057576000357c0100000000000000000000000000000000000000000000000000000000900463ffffffff1680630c0b66911461005c5780633f0a0797146100c6578063d6483d171461011b575b600080fd5b341561006757600080fd5b61006f610178565b6040518080602001828103825283818151815260200191508051906020019060200280838360005b838110156100b2578082015181840152602081019050610097565b505050509050019250505060405180910390f35b34156100d157600080fd5b6100d9610249565b604051808273ffffffffffffffffffffffffffffffffffffffff1673ffffffffffffffffffffffffffffffffffffffff16815260200191505060405180910390f35b341561012657600080fd5b610176600480803590602001908201803590602001908080601f0160208091040260200160405190810160405280939291908181526020018383808284378201915050505050509190505061026e565b005b610180610490565b600160003373ffffffffffffffffffffffffffffffffffffffff1673ffffffffffffffffffffffffffffffffffffffff16815260200190815260200160002080548060200260200160405190810160405280929190818152602001828054801561023f57602002820191906000526020600020905b8160009054906101000a900473ffffffffffffffffffffffffffffffffffffffff1673ffffffffffffffffffffffffffffffffffffffff16815260200190600101908083116101f5575b5050505050905090565b6000809054906101000a900473ffffffffffffffffffffffffffffffffffffffff1681565b600081336000809054906101000a900473ffffffffffffffffffffffffffffffffffffffff1661029c6104a4565b80806020018473ffffffffffffffffffffffffffffffffffffffff1673ffffffffffffffffffffffffffffffffffffffff1681526020018373ffffffffffffffffffffffffffffffffffffffff1673ffffffffffffffffffffffffffffffffffffffff168152602001828103825285818151815260200191508051906020019080838360005b8381101561033d578082015181840152602081019050610322565b50505050905090810190601f16801561036a5780820380516001836020036101000a031916815260200191505b50945050505050604051809103906000f080151561038757600080fd5b9050600160003373ffffffffffffffffffffffffffffffffffffffff1673ffffffffffffffffffffffffffffffffffffffff16815260200190815260200160002080548060010182816103da91906104b4565b9160005260206000209001600083909190916101000a81548173ffffffffffffffffffffffffffffffffffffffff021916908373ffffffffffffffffffffffffffffffffffffffff160217905550507faf00cebe9bcf143d4aaf9af981db775325400dfff1f9916c76b5d17d72ffc94e81604051808273ffffffffffffffffffffffffffffffffffffffff1673ffffffffffffffffffffffffffffffffffffffff16815260200191505060405180910390a15050565b602060405190810160405280600081525090565b60405161301c8061050683390190565b8154818355818115116104db578183600052602060002091820191016104da91906104e0565b5b505050565b61050291905b808211156104fe5760008160009055506001016104e6565b5090565b90560060606040526040516200301c3803806200301c8339810160405280805182019190602001805190602001909190805190602001909190505033600160006101000a81548173ffffffffffffffffffffffffffffffffffffffff021916908373ffffffffffffffffffffffffffffffffffffffff16021790555062000097826200013b6401000000000262000518176401000000009004565b620000d8600560009054906101000a900473ffffffffffffffffffffffffffffffffffffffff16620002196401000000000262000c54176401000000009004565b8260029080519060200190620000f09291906200025c565b5080600360006101000a81548173ffffffffffffffffffffffffffffffffffffffff021916908373ffffffffffffffffffffffffffffffffffffffff1602179055505050506200030b565b600160009054906101000a900473ffffffffffffffffffffffffffffffffffffffff1673ffffffffffffffffffffffffffffffffffffffff163373ffffffffffffffffffffffffffffffffffffffff161415156200019857600080fd5b600073ffffffffffffffffffffffffffffffffffffffff168173ffffffffffffffffffffffffffffffffffffffff1614151515620001d557600080fd5b80600160006101000a81548173ffffffffffffffffffffffffffffffffffffffff021916908373ffffffffffffffffffffffffffffffffffffffff16021790555050565b806000806101000a81548173ffffffffffffffffffffffffffffffffffffffff021916908373ffffffffffffffffffffffffffffffffffffffff16021790555050565b828054600181600116156101000203166002900490600052602060002090601f016020900481019282601f106200029f57805160ff1916838001178555620002d0565b82800160010185558215620002d0579182015b82811115620002cf578251825591602001919060010190620002b2565b5b509050620002df9190620002e3565b5090565b6200030891905b8082111562000304576000816000905550600101620002ea565b5090565b90565b612d01806200031b6000396000f300606060405260043610610099576000357c0100000000000000000000000000000000000000000000000000000000900463ffffffff16806306fdde031461009e5780630c08bf881461012c57806313af4035146101415780633f0a07971461017a5780638da5cb5b146101cf578063b48cc6e514610224578063bf7e214f146102c1578063ec0cfd0b14610316578063f7b1080814610380575b600080fd5b34156100a957600080fd5b6100b16103e3565b6040518080602001828103825283818151815260200191508051906020019080838360005b838110156100f15780820151818401526020810190506100d6565b50505050905090810190601f16801561011e5780820380516001836020036101000a031916815260200191505b509250505060405180910390f35b341561013757600080fd5b61013f610481565b005b341561014c57600080fd5b610178600480803573ffffffffffffffffffffffffffffffffffffffff16906020019091905050610518565b005b341561018557600080fd5b61018d6105f4565b604051808273ffffffffffffffffffffffffffffffffffffffff1673ffffffffffffffffffffffffffffffffffffffff16815260200191505060405180910390f35b34156101da57600080fd5b6101e261061a565b604051808273ffffffffffffffffffffffffffffffffffffffff1673ffffffffffffffffffffffffffffffffffffffff16815260200191505060405180910390f35b341561022f57600080fd5b61027f600480803590602001908201803590602001908080601f01602080910402602001604051908101604052809392919081815260200183838082843782019150505050505091905050610640565b604051808273ffffffffffffffffffffffffffffffffffffffff1673ffffffffffffffffffffffffffffffffffffffff16815260200191505060405180910390f35b34156102cc57600080fd5b6102d4610887565b604051808273ffffffffffffffffffffffffffffffffffffffff1673ffffffffffffffffffffffffffffffffffffffff16815260200191505060405180910390f35b341561032157600080fd5b6103296108ac565b6040518080602001828103825283818151815260200191508051906020019060200280838360005b8381101561036c578082015181840152602081019050610351565b505050509050019250505060405180910390f35b341561038b57600080fd5b6103a16004808035906020019091905050610940565b604051808273ffffffffffffffffffffffffffffffffffffffff1673ffffffffffffffffffffffffffffffffffffffff16815260200191505060405180910390f35b60028054600181600116156101000203166002900480601f0160208091040260200160405190810160405280929190818152602001828054600181600116156101000203166002900480156104795780601f1061044e57610100808354040283529160200191610479565b820191906000526020600020905b81548152906001019060200180831161045c57829003601f168201915b505050505081565b600160009054906101000a900473ffffffffffffffffffffffffffffffffffffffff1673ffffffffffffffffffffffffffffffffffffffff163373ffffffffffffffffffffffffffffffffffffffff161415156104dd57600080fd5b600160009054906101000a900473ffffffffffffffffffffffffffffffffffffffff1673ffffffffffffffffffffffffffffffffffffffff16ff5b600160009054906101000a900473ffffffffffffffffffffffffffffffffffffffff1673ffffffffffffffffffffffffffffffffffffffff163373ffffffffffffffffffffffffffffffffffffffff1614151561057457600080fd5b600073ffffffffffffffffffffffffffffffffffffffff168173ffffffffffffffffffffffffffffffffffffffff16141515156105b057600080fd5b80600160006101000a81548173ffffffffffffffffffffffffffffffffffffffff021916908373ffffffffffffffffffffffffffffffffffffffff16021790555050565b600360009054906101000a900473ffffffffffffffffffffffffffffffffffffffff1681565b600160009054906101000a900473ffffffffffffffffffffffffffffffffffffffff1681565b600080610671336000357fffffffff000000000000000000000000000000000000000000000000000000001661097f565b151561067c57600080fd5b82600160009054906101000a900473ffffffffffffffffffffffffffffffffffffffff16600360009054906101000a900473ffffffffffffffffffffffffffffffffffffffff166106cb610bde565b80806020018473ffffffffffffffffffffffffffffffffffffffff1673ffffffffffffffffffffffffffffffffffffffff1681526020018373ffffffffffffffffffffffffffffffffffffffff1673ffffffffffffffffffffffffffffffffffffffff168152602001828103825285818151815260200191508051906020019080838360005b8381101561076c578082015181840152602081019050610751565b50505050905090810190601f1680156107995780820380516001836020036101000a031916815260200191505b50945050505050604051809103906000f08015156107b657600080fd5b9050600480548060010182816107cc9190610bef565b9160005260206000209001600083909190916101000a81548173ffffffffffffffffffffffffffffffffffffffff021916908373ffffffffffffffffffffffffffffffffffffffff160217905550507f05f35573428dbee5ccc6f8cc1b3fd7124c4c5b206a288190526c8dbcceb7d2e481604051808273ffffffffffffffffffffffffffffffffffffffff1673ffffffffffffffffffffffffffffffffffffffff16815260200191505060405180910390a180915050919050565b6000809054906101000a900473ffffffffffffffffffffffffffffffffffffffff1681565b6108b4610c1b565b600480548060200260200160405190810160405280929190818152602001828054801561093657602002820191906000526020600020905b8160009054906101000a900473ffffffffffffffffffffffffffffffffffffffff1673ffffffffffffffffffffffffffffffffffffffff16815260200190600101908083116108ec575b5050505050905090565b60048181548110151561094f57fe5b90600052602060002090016000915054906101000a900473ffffffffffffffffffffffffffffffffffffffff1681565b60003073ffffffffffffffffffffffffffffffffffffffff168373ffffffffffffffffffffffffffffffffffffffff1614156109be5760019050610bd8565b600160009054906101000a900473ffffffffffffffffffffffffffffffffffffffff1673ffffffffffffffffffffffffffffffffffffffff168373ffffffffffffffffffffffffffffffffffffffff161415610a1d5760019050610bd8565b600073ffffffffffffffffffffffffffffffffffffffff166000809054906101000a900473ffffffffffffffffffffffffffffffffffffffff1673ffffffffffffffffffffffffffffffffffffffff161415610a7c5760009050610bd8565b6000809054906101000a900473ffffffffffffffffffffffffffffffffffffffff1673ffffffffffffffffffffffffffffffffffffffff1663b70096138430856000604051602001526040518463ffffffff167c0100000000000000000000000000000000000000000000000000000000028152600401808473ffffffffffffffffffffffffffffffffffffffff1673ffffffffffffffffffffffffffffffffffffffff1681526020018373ffffffffffffffffffffffffffffffffffffffff1673ffffffffffffffffffffffffffffffffffffffff168152602001827bffffffffffffffffffffffffffffffffffffffffffffffffffffffff19167bffffffffffffffffffffffffffffffffffffffffffffffffffffffff191681526020019350505050602060405180830381600087803b1515610bba57600080fd5b6102c65a03f11515610bcb57600080fd5b5050506040518051905090505b92915050565b60405161203e8062000c9883390190565b815481835581811511610c1657818360005260206000209182019101610c159190610c2f565b5b505050565b602060405190810160405280600081525090565b610c5191905b80821115610c4d576000816000905550600101610c35565b5090565b90565b806000806101000a81548173ffffffffffffffffffffffffffffffffffffffff021916908373ffffffffffffffffffffffffffffffffffffffff16021790555050560060606040526040516200203e3803806200203e8339810160405280805182019190602001805190602001909190805190602001909190505033600160006101000a81548173ffffffffffffffffffffffffffffffffffffffff021916908373ffffffffffffffffffffffffffffffffffffffff16021790555062000097826200013b6401000000000262000932176401000000009004565b620000d8600860009054906101000a900473ffffffffffffffffffffffffffffffffffffffff16620002196401000000000262001cb4176401000000009004565b8260049080519060200190620000f09291906200025c565b5080600760006101000a81548173ffffffffffffffffffffffffffffffffffffffff021916908373ffffffffffffffffffffffffffffffffffffffff1602179055505050506200030b565b600160009054906101000a900473ffffffffffffffffffffffffffffffffffffffff1673ffffffffffffffffffffffffffffffffffffffff163373ffffffffffffffffffffffffffffffffffffffff161415156200019857600080fd5b600073ffffffffffffffffffffffffffffffffffffffff168173ffffffffffffffffffffffffffffffffffffffff1614151515620001d557600080fd5b80600160006101000a81548173ffffffffffffffffffffffffffffffffffffffff021916908373ffffffffffffffffffffffffffffffffffffffff16021790555050565b806000806101000a81548173ffffffffffffffffffffffffffffffffffffffff021916908373ffffffffffffffffffffffffffffffffffffffff16021790555050565b828054600181600116156101000203166002900490600052602060002090601f016020900481019282601f106200029f57805160ff1916838001178555620002d0565b82800160010185558215620002d0579182015b82811115620002cf578251825591602001919060010190620002b2565b5b509050620002df9190620002e3565b5090565b6200030891905b8082111562000304576000816000905550600101620002ea565b5090565b90565b611d23806200031b6000396000f3006060604052600436106100e6576000357c0100000000000000000000000000000000000000000000000000000000900463ffffffff16806306fdde03146100eb5780630c08bf88146101795780630fa467a61461018e57806313af4035146101b85780634fa756a9146101f1578063553fb24c1461026b5780637ec511fd146102f55780638c59df8e146103255780638da5cb5b146103c157806396173b6a14610416578063bf7e214f1461047c578063c77b7c91146104d1578063c804b4961461054b578063eac8f5b8146105d5578063edf49c0914610622578063f904f10e1461064b575b600080fd5b34156100f657600080fd5b6100fe61068b565b6040518080602001828103825283818151815260200191508051906020019080838360005b8381101561013e578082015181840152602081019050610123565b50505050905090810190601f16801561016b5780820380516001836020036101000a031916815260200191505b509250505060405180910390f35b341561018457600080fd5b61018c610729565b005b6101b660048080359060200190919080359060200190919080359060200190919050506107c0565b005b34156101c357600080fd5b6101ef600480803573ffffffffffffffffffffffffffffffffffffffff16906020019091905050610932565b005b34156101fc57600080fd5b61021b6004808035906020019091908035906020019091905050610a0e565b604051808481526020018381526020018273ffffffffffffffffffffffffffffffffffffffff1673ffffffffffffffffffffffffffffffffffffffff168152602001935050505060405180910390f35b341561027657600080fd5b61029e6004808035906020019091908035906020019091908035906020019091905050610ad4565b6040518080602001828103825283818151815260200191508051906020019060200280838360005b838110156102e15780820151818401526020810190506102c6565b505050509050019250505060405180910390f35b341561030057600080fd5b610323600480803590602001909190803560001916906020019091905050610af0565b005b341561033057600080fd5b6103466004808035906020019091905050610cfe565b6040518080602001828103825283818151815260200191508051906020019080838360005b8381101561038657808201518184015260208101905061036b565b50505050905090810190601f1680156103b35780820380516001836020036101000a031916815260200191505b509250505060405180910390f35b34156103cc57600080fd5b6103d4610e36565b604051808273ffffffffffffffffffffffffffffffffffffffff1673ffffffffffffffffffffffffffffffffffffffff16815260200191505060405180910390f35b341561042157600080fd5b61047a600480803590602001909190803590602001908201803590602001908080601f01602080910402602001604051908101604052809392919081815260200183838082843782019150505050505091905050610e5c565b005b341561048757600080fd5b61048f610f2b565b604051808273ffffffffffffffffffffffffffffffffffffffff1673ffffffffffffffffffffffffffffffffffffffff16815260200191505060405180910390f35b34156104dc57600080fd5b6104fb6004808035906020019091908035906020019091905050610f50565b604051808481526020018381526020018273ffffffffffffffffffffffffffffffffffffffff1673ffffffffffffffffffffffffffffffffffffffff168152602001935050505060405180910390f35b341561055657600080fd5b61057e6004808035906020019091908035906020019091908035906020019091905050610fa7565b6040518080602001828103825283818151815260200191508051906020019060200280838360005b838110156105c15780820151818401526020810190506105a6565b505050509050019250505060405180910390f35b34156105e057600080fd5b6105f6600480803590602001909190505061119a565b604051808481526020018381526020018260001916600019168152602001935050505060405180910390f35b341561062d57600080fd5b6106356112ff565b6040518082815260200191505060405180910390f35b341561065657600080fd5b610675600480803590602001909190803590602001909190505061130c565b6040518082815260200191505060405180910390f35b60048054600181600116156101000203166002900480601f0160208091040260200160405190810160405280929190818152602001828054600181600116156101000203166002900480156107215780601f106106f657610100808354040283529160200191610721565b820191906000526020600020905b81548152906001019060200180831161070457829003601f168201915b505050505081565b600160009054906101000a900473ffffffffffffffffffffffffffffffffffffffff1673ffffffffffffffffffffffffffffffffffffffff163373ffffffffffffffffffffffffffffffffffffffff1614151561078557600080fd5b600160009054906101000a900473ffffffffffffffffffffffffffffffffffffffff1673ffffffffffffffffffffffffffffffffffffffff16ff5b60008083831115156107d157600080fd5b8342111515156107e057600080fd5b6018603c808686038115156107f157fe5b048115156107fb57fe5b0481151561080557fe5b049150610812858361130c565b905080341015151561082357600080fd5b610830858586860361155a565b6060604051908101604052808581526020018481526020013373ffffffffffffffffffffffffffffffffffffffff16815250600560008781526020019081526020016000206000868152602001908152602001600020600082015181600001556020820151816001015560408201518160020160006101000a81548173ffffffffffffffffffffffffffffffffffffffff021916908373ffffffffffffffffffffffffffffffffffffffff1602179055509050507f5fd35e579007391af559ac73266b7bf47d3906fdf585f5a22cac4930f339093385858460405180848152602001838152602001828152602001935050505060405180910390a15050505050565b600160009054906101000a900473ffffffffffffffffffffffffffffffffffffffff1673ffffffffffffffffffffffffffffffffffffffff163373ffffffffffffffffffffffffffffffffffffffff1614151561098e57600080fd5b600073ffffffffffffffffffffffffffffffffffffffff168173ffffffffffffffffffffffffffffffffffffffff16141515156109ca57600080fd5b80600160006101000a81548173ffffffffffffffffffffffffffffffffffffffff021916908373ffffffffffffffffffffffffffffffffffffffff16021790555050565b6000806000610a1b611912565b6005600087815260200190815260200160002060008681526020019081526020016000206060604051908101604052908160008201548152602001600182015481526020016002820160009054906101000a900473ffffffffffffffffffffffffffffffffffffffff1673ffffffffffffffffffffffffffffffffffffffff1673ffffffffffffffffffffffffffffffffffffffff16815250509050806000015181602001518260400151935093509350509250925092565b610adc61194a565b610ae7848484610fa7565b90509392505050565b6000610afa61195e565b600160009054906101000a900473ffffffffffffffffffffffffffffffffffffffff1673ffffffffffffffffffffffffffffffffffffffff163373ffffffffffffffffffffffffffffffffffffffff16141515610b5657600080fd5b600760009054906101000a900473ffffffffffffffffffffffffffffffffffffffff1673ffffffffffffffffffffffffffffffffffffffff16634f69a419846000604051602001526040518263ffffffff167c0100000000000000000000000000000000000000000000000000000000028152600401808260001916600019168152602001915050602060405180830381600087803b1515610bf757600080fd5b6102c65a03f11515610c0857600080fd5b505050604051805190501515610c1d57600080fd5b6006805490509150610c2e82611781565b60068054806001018281610c429190611972565b91600052602060002090600402016000608060405190810160405280868152602001888152602001876000191681526020018581525090919091506000820151816000015560208201518160010155604082015181600201906000191690556060820151816003019080519060200190610cbd9291906119a4565b505050507fe9667cd49094a292b02a1d8555f54c265b42912082c2f32b2050393b06d83598826040518082815260200191505060405180910390a150505050565b610d06611a04565b6000600683815481101515610d1757fe5b906000526020600020906004020160030180549050111515610d3857600080fd5b600682815481101515610d4757fe5b90600052602060002090600402016003016001600684815481101515610d6957fe5b90600052602060002090600402016003018054905003815481101515610d8b57fe5b90600052602060002090018054600181600116156101000203166002900480601f016020809104026020016040519081016040528092919081815260200182805460018160011615610100020316600290048015610e2a5780601f10610dff57610100808354040283529160200191610e2a565b820191906000526020600020905b815481529060010190602001808311610e0d57829003601f168201915b50505050509050919050565b600160009054906101000a900473ffffffffffffffffffffffffffffffffffffffff1681565b600160009054906101000a900473ffffffffffffffffffffffffffffffffffffffff1673ffffffffffffffffffffffffffffffffffffffff163373ffffffffffffffffffffffffffffffffffffffff16141515610eb857600080fd5b610ec06112ff565b82101515610ecd57600080fd5b600682815481101515610edc57fe5b90600052602060002090600402016003018054806001018281610eff9190611a18565b916000526020600020900160008390919091509080519060200190610f25929190611a44565b50505050565b6000809054906101000a900473ffffffffffffffffffffffffffffffffffffffff1681565b6005602052816000526040600020602052806000526040600020600091509150508060000154908060010154908060020160009054906101000a900473ffffffffffffffffffffffffffffffffffffffff16905083565b610faf61194a565b610fb7611ac4565b610fbf61194a565b60008085111515610fcf57600080fd5b8585111515610fdd57600080fd5b6254600086860311151515610ff157600080fd5b600360008881526020019081526020016000206000600260008a81526020019081526020016000205481526020019081526020016000206080604051908101604052908160008201548152602001600182015481526020016002820154815260200160038201548152505092505b84836060015111156110ce576003600088815260200190815260200160002060008460000151815260200190815260200160002060806040519081016040529081600082015481526020016001820154815260200160028201548152602001600382015481525050925061105f565b604080518059106110dc5750595b90808252806020026020018201604052509150600090505b85836060015110151561118d578260600151828281518110151561111457fe5b90602001906020020181815250506003600088815260200190815260200160002060008460000151815260200190815260200160002060806040519081016040529081600082015481526020016001820154815260200160028201548152602001600382015481525050925080806001019150506110f4565b8193505050509392505050565b60008060006111a7611aed565b6006858154811015156111b657fe5b906000526020600020906004020160806040519081016040529081600082015481526020016001820154815260200160028201546000191660001916815260200160038201805480602002602001604051908101604052809291908181526020016000905b828210156112d857838290600052602060002090018054600181600116156101000203166002900480601f0160208091040260200160405190810160405280929190818152602001828054600181600116156101000203166002900480156112c45780601f10611299576101008083540402835291602001916112c4565b820191906000526020600020905b8154815290600101906020018083116112a757829003601f168201915b50505050508152602001906001019061121b565b50505050815250509050806000015181602001518260400151935093509350509193909250565b6000600680549050905090565b6000611316611aed565b60008060008511151561132857600080fd5b60068681548110151561133757fe5b906000526020600020906004020160806040519081016040529081600082015481526020016001820154815260200160028201546000191660001916815260200160038201805480602002602001604051908101604052809291908181526020016000905b8282101561145957838290600052602060002090018054600181600116156101000203166002900480601f0160208091040260200160405190810160405280929190818152602001828054600181600116156101000203166002900480156114455780601f1061141a57610100808354040283529160200191611445565b820191906000526020600020905b81548152906001019060200180831161142857829003601f168201915b50505050508152602001906001019061139c565b50505050815250509250600760009054906101000a900473ffffffffffffffffffffffffffffffffffffffff1673ffffffffffffffffffffffffffffffffffffffff16632387e3e684604001516000604051602001526040518263ffffffff167c0100000000000000000000000000000000000000000000000000000000028152600401808260001916600019168152602001915050602060405180830381600087803b151561150857600080fd5b6102c65a03f1151561151957600080fd5b505050604051805190506103e8806103e8806103e88060648a602001510202020202020281151561154657fe5b049150848202905080935050505092915050565b60008060008411151561156c57600080fd5b60008311151561157b57600080fd5b6003600086815260200190815260200160002060006002600088815260200190815260200160002054815260200190815260200160002091506115f2826080604051908101604052908160008201548152602001600182015481526020016002820154815260200160038201548152505085611812565b156116085761160385838686611834565b61177a565b5b83826003015410151561164557600360008681526020019081526020016000206000836000015481526020019081526020016000209150611609565b6003600086815260200190815260200160002060008360010154815260200190815260200160002090506116e38260806040519081016040529081600082015481526020016001820154815260200160028201548152602001600382015481525050858584608060405190810160405290816000820154815260200160018201548152602001600282015481526020016003820154815250506118d1565b15156116ee57600080fd5b838260010181905550838160000181905550608060405190810160405280836003015481526020018260030154815260200184815260200185815250600360008781526020019081526020016000206000868152602001908152602001600020600082015181600001556020820151816001015560408201518160020155606082015181600301559050505b5050505050565b6080604051908101604052806000815260200160008152602001600081526020016000815250600360008381526020019081526020016000206000808152602001908152602001600020600082015181600001556020820151816001015560408201518160020155606082015181600301559050506000600260008381526020019081526020016000208190555050565b60008183606001511015611829576001905061182e565b600090505b92915050565b8183600101819055506080604051908101604052808460030154815260200160008152602001828152602001838152506003600086815260200190815260200160002060008481526020019081526020016000206000820151816000015560208201518160010155604082015181600201556060820151816003015590505081600260008681526020019081526020016000208190555050505050565b600083856040015186606001510111156118ee576000905061190a565b81606001518385011115611905576000905061190a565b600190505b949350505050565b6060604051908101604052806000815260200160008152602001600073ffffffffffffffffffffffffffffffffffffffff1681525090565b602060405190810160405280600081525090565b602060405190810160405280600081525090565b81548183558181151161199f5760040281600402836000526020600020918201910161199e9190611b1f565b5b505050565b8280548282559060005260206000209081019282156119f3579160200282015b828111156119f25782518290805190602001906119e2929190611b66565b50916020019190600101906119c4565b5b509050611a009190611be6565b5090565b602060405190810160405280600081525090565b815481835581811511611a3f57818360005260206000209182019101611a3e9190611be6565b5b505050565b828054600181600116156101000203166002900490600052602060002090601f016020900481019282601f10611a8557805160ff1916838001178555611ab3565b82800160010185558215611ab3579182015b82811115611ab2578251825591602001919060010190611a97565b5b509050611ac09190611c12565b5090565b608060405190810160405280600081526020016000815260200160008152602001600081525090565b608060405190810160405280600081526020016000815260200160008019168152602001611b19611c37565b81525090565b611b6391905b80821115611b5f5760008082016000905560018201600090556002820160009055600382016000611b569190611c4b565b50600401611b25565b5090565b90565b828054600181600116156101000203166002900490600052602060002090601f016020900481019282601f10611ba757805160ff1916838001178555611bd5565b82800160010185558215611bd5579182015b82811115611bd4578251825591602001919060010190611bb9565b5b509050611be29190611c12565b5090565b611c0f91905b80821115611c0b5760008181611c029190611c6c565b50600101611bec565b5090565b90565b611c3491905b80821115611c30576000816000905550600101611c18565b5090565b90565b602060405190810160405280600081525090565b5080546000825590600052602060002090810190611c699190611be6565b50565b50805460018160011615610100020316600290046000825580601f10611c925750611cb1565b601f016020900490600052602060002090810190611cb09190611c12565b5b50565b806000806101000a81548173ffffffffffffffffffffffffffffffffffffffff021916908373ffffffffffffffffffffffffffffffffffffffff160217905550505600a165627a7a7230582002632af7daf05dd7734fae47b23d9f1ce2bbf465512a3cbea4312be80c2072460029a165627a7a72305820d7e68e44d61cf74ecd4efbb49b7ce14ced916180ba7001c3cb92c3bdcc3aeef00029a165627a7a7230582080cdfc7aeef559077fca3ba599b97564d6774e9688cfcb02bf3a8c226635a7970029",
  "source": "pragma solidity ^0.4.18;\r\n\r\nimport \"./Company.sol\";\r\n\r\ncontract CompanyFactory {\r\n    address public exchangeContract;\r\n    mapping(address => address[]) companies;\r\n    event CompanyCreated (address company);\r\n\r\n    function CompanyFactory(address _exchangeContract) public {\r\n        exchangeContract = _exchangeContract;\r\n    }\r\n\r\n    function addCompany(string name) public {\r\n        // Create new company.\r\n        Company newCompany = new Company(name, msg.sender, exchangeContract);\r\n\r\n        // Companies are added under a single owner.\r\n        companies[msg.sender].push(newCompany);\r\n        CompanyCreated(newCompany);\r\n    }\r\n\r\n    function getCompanies() public view returns(address[]) {\r\n        return companies[msg.sender];\r\n    }\r\n}",
  "sourcePath": "C:\\Users\\Francis\\Desktop\\latude-dev-portal\\contracts\\CompanyFactory.sol",
  "compiler": {
    "name": "solc",
    "version": "0.4.19+commit.c4cbbb05.Emscripten.clang"
  },
  "schemaVersion": "2.0.0",
  "updatedAt": "2018-02-27T02:14:45.206Z"
}