{
  "contractName": "ExchangeRates",
  "abi": [
    {
      "constant": false,
      "inputs": [],
      "name": "terminate",
      "outputs": [],
      "payable": false,
      "stateMutability": "nonpayable",
      "type": "function"
    },
    {
      "constant": false,
      "inputs": [
        {
          "name": "newOwner",
          "type": "address"
        }
      ],
      "name": "setOwner",
      "outputs": [],
      "payable": false,
      "stateMutability": "nonpayable",
      "type": "function"
    },
    {
      "constant": true,
      "inputs": [
        {
          "name": "_currency",
          "type": "bytes32"
        }
      ],
      "name": "getCurrencyRate",
      "outputs": [
        {
          "name": "",
          "type": "uint256"
        }
      ],
      "payable": false,
      "stateMutability": "view",
      "type": "function"
    },
    {
      "constant": false,
      "inputs": [
        {
          "name": "myid",
          "type": "bytes32"
        },
        {
          "name": "currencies",
          "type": "string"
        }
      ],
      "name": "__callback",
      "outputs": [],
      "payable": false,
      "stateMutability": "nonpayable",
      "type": "function"
    },
    {
      "constant": false,
      "inputs": [
        {
          "name": "myid",
          "type": "bytes32"
        },
        {
          "name": "result",
          "type": "string"
        },
        {
          "name": "proof",
          "type": "bytes"
        }
      ],
      "name": "__callback",
      "outputs": [],
      "payable": false,
      "stateMutability": "nonpayable",
      "type": "function"
    },
    {
      "constant": true,
      "inputs": [
        {
          "name": "_currency",
          "type": "bytes32"
        }
      ],
      "name": "isCurrencyAllowed",
      "outputs": [
        {
          "name": "",
          "type": "bool"
        }
      ],
      "payable": false,
      "stateMutability": "view",
      "type": "function"
    },
    {
      "constant": true,
      "inputs": [],
      "name": "owner",
      "outputs": [
        {
          "name": "",
          "type": "address"
        }
      ],
      "payable": false,
      "stateMutability": "view",
      "type": "function"
    },
    {
      "constant": true,
      "inputs": [],
      "name": "authority",
      "outputs": [
        {
          "name": "",
          "type": "address"
        }
      ],
      "payable": false,
      "stateMutability": "view",
      "type": "function"
    },
    {
      "constant": false,
      "inputs": [
        {
          "name": "newDelay",
          "type": "uint256"
        }
      ],
      "name": "setDelay",
      "outputs": [],
      "payable": false,
      "stateMutability": "nonpayable",
      "type": "function"
    },
    {
      "inputs": [],
      "payable": true,
      "stateMutability": "payable",
      "type": "constructor"
    }
  ],
  "bytecode": "0x606060405233600660006101000a81548173ffffffffffffffffffffffffffffffffffffffff021916908373ffffffffffffffffffffffffffffffffffffffff16021790555062015180600781905550736f485c8bf6fc43ea212e93bbf8ce046c7f1cb4756000806101000a81548173ffffffffffffffffffffffffffffffffffffffff021916908373ffffffffffffffffffffffffffffffffffffffff160217905550620000c36000620000c96401000000000262000c44176401000000009004565b62000ca0565b60006200017d826040805190810160405280600381526020017f55524c0000000000000000000000000000000000000000000000000000000000815250606060405190810160405280603e81526020017f6a736f6e2868747470733a2f2f6c61747564652d63757272656e63792d61706981526020017f2e6865726f6b756170702e636f6d2f63757272656e6379292e72617465730000815250620001b76401000000000262000ec1176401000000009004565b90506001600a6000836000191660001916815260200190815260200160002060006101000a81548160ff0219169083151502179055505050565b60008060008060009054906101000a900473ffffffffffffffffffffffffffffffffffffffff1673ffffffffffffffffffffffffffffffffffffffff16148062000240575060006200023e6000809054906101000a900473ffffffffffffffffffffffffffffffffffffffff16620006396401000000000262001304176401000000009004565b145b15620002685762000266600062000644640100000000026200130f176401000000009004565b505b6000809054906101000a900473ffffffffffffffffffffffffffffffffffffffff1673ffffffffffffffffffffffffffffffffffffffff166338cc48316000604051602001526040518163ffffffff167c0100000000000000000000000000000000000000000000000000000000028152600401602060405180830381600087803b1515620002f657600080fd5b6102c65a03f115156200030857600080fd5b50505060405180519050600160006101000a81548173ffffffffffffffffffffffffffffffffffffffff021916908373ffffffffffffffffffffffffffffffffffffffff160217905550600160009054906101000a900473ffffffffffffffffffffffffffffffffffffffff1673ffffffffffffffffffffffffffffffffffffffff1663524f3889856000604051602001526040518263ffffffff167c01000000000000000000000000000000000000000000000000000000000281526004018080602001828103825283818151815260200191508051906020019080838360005b8381101562000407578082015181840152602081019050620003ea565b50505050905090810190601f168015620004355780820380516001836020036101000a031916815260200191505b5092505050602060405180830381600087803b15156200045457600080fd5b6102c65a03f115156200046657600080fd5b50505060405180519050905062030d403a02670de0b6b3a76400000181111562000497576000600102915062000631565b600160009054906101000a900473ffffffffffffffffffffffffffffffffffffffff1673ffffffffffffffffffffffffffffffffffffffff1663adf59f99828787876000604051602001526040518563ffffffff167c0100000000000000000000000000000000000000000000000000000000028152600401808481526020018060200180602001838103835285818151815260200191508051906020019080838360005b83811015620005595780820151818401526020810190506200053c565b50505050905090810190601f168015620005875780820380516001836020036101000a031916815260200191505b50838103825284818151815260200191508051906020019080838360005b83811015620005c2578082015181840152602081019050620005a5565b50505050905090810190601f168015620005f05780820380516001836020036101000a031916815260200191505b50955050505050506020604051808303818588803b15156200061157600080fd5b6125ee5a03f115156200062357600080fd5b505050506040518051905091505b509392505050565b6000813b9050919050565b6000806200067a731d3b2638a7cc9f2cb3d298a3da7a90b67e5506ed620006396401000000000262001304176401000000009004565b11156200073357731d3b2638a7cc9f2cb3d298a3da7a90b67e5506ed6000806101000a81548173ffffffffffffffffffffffffffffffffffffffff021916908373ffffffffffffffffffffffffffffffffffffffff160217905550620007296040805190810160405280600b81526020017f6574685f6d61696e6e657400000000000000000000000000000000000000000081525062000bd564010000000002620017a0176401000000009004565b6001905062000bd0565b60006200076873c03a2615d5efaf5f49f60b7bb6583eaec212fdf1620006396401000000000262001304176401000000009004565b1115620008215773c03a2615d5efaf5f49f60b7bb6583eaec212fdf16000806101000a81548173ffffffffffffffffffffffffffffffffffffffff021916908373ffffffffffffffffffffffffffffffffffffffff160217905550620008176040805190810160405280600c81526020017f6574685f726f707374656e33000000000000000000000000000000000000000081525062000bd564010000000002620017a0176401000000009004565b6001905062000bd0565b60006200085673b7a07bcf2ba2f2703b24c0691b5278999c59ac7e620006396401000000000262001304176401000000009004565b11156200090f5773b7a07bcf2ba2f2703b24c0691b5278999c59ac7e6000806101000a81548173ffffffffffffffffffffffffffffffffffffffff021916908373ffffffffffffffffffffffffffffffffffffffff160217905550620009056040805190810160405280600981526020017f6574685f6b6f76616e000000000000000000000000000000000000000000000081525062000bd564010000000002620017a0176401000000009004565b6001905062000bd0565b60006200094473146500cfd35b22e4a392fe0adc06de1a1368ed48620006396401000000000262001304176401000000009004565b1115620009fd5773146500cfd35b22e4a392fe0adc06de1a1368ed486000806101000a81548173ffffffffffffffffffffffffffffffffffffffff021916908373ffffffffffffffffffffffffffffffffffffffff160217905550620009f36040805190810160405280600b81526020017f6574685f72696e6b65627900000000000000000000000000000000000000000081525062000bd564010000000002620017a0176401000000009004565b6001905062000bd0565b600062000a32736f485c8bf6fc43ea212e93bbf8ce046c7f1cb475620006396401000000000262001304176401000000009004565b111562000a9757736f485c8bf6fc43ea212e93bbf8ce046c7f1cb4756000806101000a81548173ffffffffffffffffffffffffffffffffffffffff021916908373ffffffffffffffffffffffffffffffffffffffff1602179055506001905062000bd0565b600062000acc7320e12a1f859b3feae5fb2a0a32c18f5a65555bbf620006396401000000000262001304176401000000009004565b111562000b31577320e12a1f859b3feae5fb2a0a32c18f5a65555bbf6000806101000a81548173ffffffffffffffffffffffffffffffffffffffff021916908373ffffffffffffffffffffffffffffffffffffffff1602179055506001905062000bd0565b600062000b667351efaf4c8b3c9afbd5ab9f4bbc82784ab6ef8faa620006396401000000000262001304176401000000009004565b111562000bcb577351efaf4c8b3c9afbd5ab9f4bbc82784ab6ef8faa6000806101000a81548173ffffffffffffffffffffffffffffffffffffffff021916908373ffffffffffffffffffffffffffffffffffffffff1602179055506001905062000bd0565b600090505b919050565b806002908051906020019062000bed92919062000bf1565b5050565b828054600181600116156101000203166002900490600052602060002090601f016020900481019282601f1062000c3457805160ff191683800117855562000c65565b8280016001018555821562000c65579182015b8281111562000c6457825182559160200191906001019062000c47565b5b50905062000c74919062000c78565b5090565b62000c9d91905b8082111562000c9957600081600090555060010162000c7f565b5090565b90565b6118cd8062000cb06000396000f300606060405260043610610099576000357c0100000000000000000000000000000000000000000000000000000000900463ffffffff1680630c08bf881461009e57806313af4035146100b35780632387e3e6146100ec57806327dc297e1461012757806338bbfa50146101915780634f69a4191461023e5780638da5cb5b1461027d578063bf7e214f146102d2578063e177246e14610327575b600080fd5b34156100a957600080fd5b6100b161034a565b005b34156100be57600080fd5b6100ea600480803573ffffffffffffffffffffffffffffffffffffffff169060200190919050506103e1565b005b34156100f757600080fd5b6101116004808035600019169060200190919050506104bd565b6040518082815260200191505060405180910390f35b341561013257600080fd5b61018f60048080356000191690602001909190803590602001908201803590602001908080601f016020809104026020016040519081016040528093929190818152602001838380828437820191505050505050919050506104e2565b005b341561019c57600080fd5b61023c60048080356000191690602001909190803590602001908201803590602001908080601f0160208091040260200160405190810160405280939291908181526020018383808284378201915050505050509190803590602001908201803590602001908080601f01602080910402602001604051908101604052809392919081815260200183838082843782019150505050505091905050610713565b005b341561024957600080fd5b610263600480803560001916906020019091905050610718565b604051808215151515815260200191505060405180910390f35b341561028857600080fd5b61029061074a565b604051808273ffffffffffffffffffffffffffffffffffffffff1673ffffffffffffffffffffffffffffffffffffffff16815260200191505060405180910390f35b34156102dd57600080fd5b6102e5610770565b604051808273ffffffffffffffffffffffffffffffffffffffff1673ffffffffffffffffffffffffffffffffffffffff16815260200191505060405180910390f35b341561033257600080fd5b6103486004808035906020019091905050610796565b005b600660009054906101000a900473ffffffffffffffffffffffffffffffffffffffff1673ffffffffffffffffffffffffffffffffffffffff163373ffffffffffffffffffffffffffffffffffffffff161415156103a657600080fd5b600660009054906101000a900473ffffffffffffffffffffffffffffffffffffffff1673ffffffffffffffffffffffffffffffffffffffff16ff5b600660009054906101000a900473ffffffffffffffffffffffffffffffffffffffff1673ffffffffffffffffffffffffffffffffffffffff163373ffffffffffffffffffffffffffffffffffffffff1614151561043d57600080fd5b600073ffffffffffffffffffffffffffffffffffffffff168173ffffffffffffffffffffffffffffffffffffffff161415151561047957600080fd5b80600660006101000a81548173ffffffffffffffffffffffffffffffffffffffff021916908373ffffffffffffffffffffffffffffffffffffffff16021790555050565b6000600860008360001916600019168152602001908152602001600020549050919050565b6104ea6117ba565b6104f26117ba565b6000806104fd6117d4565b6105056117ba565b61050d6117ba565b60006105176117d4565b600a60008c6000191660001916815260200190815260200160002060009054906101000a900460ff16151561054b57600080fd5b600a60008c6000191660001916815260200190815260200160002060006101000a81549060ff021916905561057f8a6107fc565b98506105bf6040805190810160405280600181526020017f7c000000000000000000000000000000000000000000000000000000000000008152506107fc565b975060016105d6898b61082a90919063ffffffff16565b019650600095505b868610156106fb576106016105fc898b6108a190919063ffffffff16565b6108bb565b945061060c856107fc565b935061064c6040805190810160405280600181526020017f3b000000000000000000000000000000000000000000000000000000000000008152506107fc565b925061067161066c61066785876108a190919063ffffffff16565b6108bb565b610919565b915061068e61068984866108a190919063ffffffff16565b6108bb565b905061069b81600261094a565b60086000846000191660001916815260200190815260200160002081905550600160096000846000191660001916815260200190815260200160002060006101000a81548160ff02191690831515021790555085806001019650506105de565b610706600754610c44565b5050505050505050505050565b505050565b600060096000836000191660001916815260200190815260200160002060009054906101000a900460ff169050919050565b600660009054906101000a900473ffffffffffffffffffffffffffffffffffffffff1681565b600560009054906101000a900473ffffffffffffffffffffffffffffffffffffffff1681565b600660009054906101000a900473ffffffffffffffffffffffffffffffffffffffff1673ffffffffffffffffffffffffffffffffffffffff163373ffffffffffffffffffffffffffffffffffffffff161415156107f257600080fd5b8060078190555050565b6108046117ba565b600060208301905060408051908101604052808451815260200182815250915050919050565b600080826000015161084e8560000151866020015186600001518760200151610d1c565b0190505b83600001518460200151018111151561089a5781806001019250508260000151610892856020015183038660000151038386600001518760200151610d1c565b019050610852565b5092915050565b6108a96117ba565b6108b4838383610dd8565b5092915050565b6108c36117d4565b6108cb6117d4565b600083600001516040518059106108df5750595b9080825280601f01601f1916602001820160405250915060208201905061090f8185602001518660000151610e76565b8192505050919050565b60006109236117e8565b82905060008151141561093c5760006001029150610944565b602083015191505b50919050565b60006109546117e8565b60008060008693506000925060009150600090505b8351811015610c255760307f01000000000000000000000000000000000000000000000000000000000000000284828151811015156109a457fe5b9060200101517f010000000000000000000000000000000000000000000000000000000000000090047f0100000000000000000000000000000000000000000000000000000000000000027effffffffffffffffffffffffffffffffffffffffffffffffffffffffffffff191610158015610abc575060397f0100000000000000000000000000000000000000000000000000000000000000028482815181101515610a4c57fe5b9060200101517f010000000000000000000000000000000000000000000000000000000000000090047f0100000000000000000000000000000000000000000000000000000000000000027effffffffffffffffffffffffffffffffffffffffffffffffffffffffffffff191611155b15610b6d578115610adf576000861415610ad557610c25565b8580600190039650505b600a8302925060308482815181101515610af557fe5b9060200101517f010000000000000000000000000000000000000000000000000000000000000090047f0100000000000000000000000000000000000000000000000000000000000000027f010000000000000000000000000000000000000000000000000000000000000090040383019250610c18565b602e7f0100000000000000000000000000000000000000000000000000000000000000028482815181101515610b9f57fe5b9060200101517f010000000000000000000000000000000000000000000000000000000000000090047f0100000000000000000000000000000000000000000000000000000000000000027effffffffffffffffffffffffffffffffffffffffffffffffffffffffffffff19161415610c1757600191505b5b8080600101915050610969565b6000861115610c375785600a0a830292505b8294505050505092915050565b6000610ce2826040805190810160405280600381526020017f55524c0000000000000000000000000000000000000000000000000000000000815250606060405190810160405280603e81526020017f6a736f6e2868747470733a2f2f6c61747564652d63757272656e63792d61706981526020017f2e6865726f6b756170702e636f6d2f63757272656e6379292e72617465730000815250610ec1565b90506001600a6000836000191660001916815260200190815260200160002060006101000a81548160ff0219169083151502179055505050565b60008060008060008887111515610dc657602087111515610d7d5760018760200360080260020a031980875116888b038a018a96505b818388511614610d7257600187019650806001880310610d52578b8b0196505b505050839450610dcc565b8686209150879350600092505b86890383111515610dc5578684209050806000191682600019161415610db257839450610dcc565b6001840193508280600101935050610d8a565b5b88880194505b50505050949350505050565b610de06117ba565b6000610dfe8560000151866020015186600001518760200151610d1c565b90508460200151836020018181525050846020015181038360000181815250508460000151856020015101811415610e40576000856000018181525050610e6b565b8360000151836000015101856000018181510391508181525050836000015181018560200181815250505b829150509392505050565b60005b602082101515610e9e5782518452602084019350602083019250602082039150610e79565b6001826020036101000a0390508019835116818551168181178652505050505050565b60008060008060009054906101000a900473ffffffffffffffffffffffffffffffffffffffff1673ffffffffffffffffffffffffffffffffffffffff161480610f3357506000610f316000809054906101000a900473ffffffffffffffffffffffffffffffffffffffff16611304565b145b15610f4457610f42600061130f565b505b6000809054906101000a900473ffffffffffffffffffffffffffffffffffffffff1673ffffffffffffffffffffffffffffffffffffffff166338cc48316000604051602001526040518163ffffffff167c0100000000000000000000000000000000000000000000000000000000028152600401602060405180830381600087803b1515610fd157600080fd5b6102c65a03f11515610fe257600080fd5b50505060405180519050600160006101000a81548173ffffffffffffffffffffffffffffffffffffffff021916908373ffffffffffffffffffffffffffffffffffffffff160217905550600160009054906101000a900473ffffffffffffffffffffffffffffffffffffffff1673ffffffffffffffffffffffffffffffffffffffff1663524f3889856000604051602001526040518263ffffffff167c01000000000000000000000000000000000000000000000000000000000281526004018080602001828103825283818151815260200191508051906020019080838360005b838110156110df5780820151818401526020810190506110c4565b50505050905090810190601f16801561110c5780820380516001836020036101000a031916815260200191505b5092505050602060405180830381600087803b151561112a57600080fd5b6102c65a03f1151561113b57600080fd5b50505060405180519050905062030d403a02670de0b6b3a76400000181111561116a57600060010291506112fc565b600160009054906101000a900473ffffffffffffffffffffffffffffffffffffffff1673ffffffffffffffffffffffffffffffffffffffff1663adf59f99828787876000604051602001526040518563ffffffff167c0100000000000000000000000000000000000000000000000000000000028152600401808481526020018060200180602001838103835285818151815260200191508051906020019080838360005b8381101561122a57808201518184015260208101905061120f565b50505050905090810190601f1680156112575780820380516001836020036101000a031916815260200191505b50838103825284818151815260200191508051906020019080838360005b83811015611290578082015181840152602081019050611275565b50505050905090810190601f1680156112bd5780820380516001836020036101000a031916815260200191505b50955050505050506020604051808303818588803b15156112dd57600080fd5b6125ee5a03f115156112ee57600080fd5b505050506040518051905091505b509392505050565b6000813b9050919050565b60008061132f731d3b2638a7cc9f2cb3d298a3da7a90b67e5506ed611304565b11156113d057731d3b2638a7cc9f2cb3d298a3da7a90b67e5506ed6000806101000a81548173ffffffffffffffffffffffffffffffffffffffff021916908373ffffffffffffffffffffffffffffffffffffffff1602179055506113c76040805190810160405280600b81526020017f6574685f6d61696e6e65740000000000000000000000000000000000000000008152506117a0565b6001905061179b565b60006113ef73c03a2615d5efaf5f49f60b7bb6583eaec212fdf1611304565b11156114905773c03a2615d5efaf5f49f60b7bb6583eaec212fdf16000806101000a81548173ffffffffffffffffffffffffffffffffffffffff021916908373ffffffffffffffffffffffffffffffffffffffff1602179055506114876040805190810160405280600c81526020017f6574685f726f707374656e3300000000000000000000000000000000000000008152506117a0565b6001905061179b565b60006114af73b7a07bcf2ba2f2703b24c0691b5278999c59ac7e611304565b11156115505773b7a07bcf2ba2f2703b24c0691b5278999c59ac7e6000806101000a81548173ffffffffffffffffffffffffffffffffffffffff021916908373ffffffffffffffffffffffffffffffffffffffff1602179055506115476040805190810160405280600981526020017f6574685f6b6f76616e00000000000000000000000000000000000000000000008152506117a0565b6001905061179b565b600061156f73146500cfd35b22e4a392fe0adc06de1a1368ed48611304565b11156116105773146500cfd35b22e4a392fe0adc06de1a1368ed486000806101000a81548173ffffffffffffffffffffffffffffffffffffffff021916908373ffffffffffffffffffffffffffffffffffffffff1602179055506116076040805190810160405280600b81526020017f6574685f72696e6b6562790000000000000000000000000000000000000000008152506117a0565b6001905061179b565b600061162f736f485c8bf6fc43ea212e93bbf8ce046c7f1cb475611304565b111561169257736f485c8bf6fc43ea212e93bbf8ce046c7f1cb4756000806101000a81548173ffffffffffffffffffffffffffffffffffffffff021916908373ffffffffffffffffffffffffffffffffffffffff1602179055506001905061179b565b60006116b17320e12a1f859b3feae5fb2a0a32c18f5a65555bbf611304565b1115611714577320e12a1f859b3feae5fb2a0a32c18f5a65555bbf6000806101000a81548173ffffffffffffffffffffffffffffffffffffffff021916908373ffffffffffffffffffffffffffffffffffffffff1602179055506001905061179b565b60006117337351efaf4c8b3c9afbd5ab9f4bbc82784ab6ef8faa611304565b1115611796577351efaf4c8b3c9afbd5ab9f4bbc82784ab6ef8faa6000806101000a81548173ffffffffffffffffffffffffffffffffffffffff021916908373ffffffffffffffffffffffffffffffffffffffff1602179055506001905061179b565b600090505b919050565b80600290805190602001906117b69291906117fc565b5050565b604080519081016040528060008152602001600081525090565b602060405190810160405280600081525090565b602060405190810160405280600081525090565b828054600181600116156101000203166002900490600052602060002090601f016020900481019282601f1061183d57805160ff191683800117855561186b565b8280016001018555821561186b579182015b8281111561186a57825182559160200191906001019061184f565b5b509050611878919061187c565b5090565b61189e91905b8082111561189a576000816000905550600101611882565b5090565b905600a165627a7a723058204b538c7c31ff7c0288822b78f2dac7e2fb3259221750b4922a646c7408eb68f80029",
  "source": "pragma solidity ^0.4.18;\r\n\r\nimport \"./Authorization.sol\";\r\nimport \"./strings.sol\";\r\nimport \"./usingOraclize.sol\";\r\n\r\ncontract ExchangeRates is usingOraclize, Authorization {\r\n    using strings for *;\r\n    \r\n    uint private delay;\r\n    mapping(bytes32 => uint) private rates; \r\n    mapping(bytes32 => bool) private supportedCurrencies;\r\n    mapping(bytes32=>bool) private validIds;\r\n\r\n    function ExchangeRates() public payable {\r\n        // Initialize the delay\r\n         delay = 86400;\r\n\r\n        // This should only be used when deploying to a local rpc.\r\n        OAR = OraclizeAddrResolverI(0x6f485C8BF6fc43eA212E93BBF8ce046C7f1cb475);\r\n\r\n        getCurrenciesRate(0);\r\n    }\r\n\r\n    function __callback(bytes32 myid, string currencies) public {\r\n        // Make sure the call was done through our service.\r\n        require(validIds[myid]);\r\n        delete validIds[myid];\r\n\r\n        // Try to uncomment when we'll try on geth or ropsten testrpc seems to run out of gas.\r\n        //require(msg.sender == oraclize_cbAddress());\r\n\r\n        // This flatten the whole string into an array ['l','a','t','u','d','e'].\r\n        var currenciesRateStringArray = currencies.toSlice();\r\n        var currenciesDelimiter = \"|\".toSlice();\r\n        uint numberOfParts = currenciesRateStringArray.count(currenciesDelimiter) + 1;\r\n        \r\n        // Navigate through all parts that were seperated with an |.\r\n        for (uint i = 0; i < numberOfParts; i++) {\r\n            var currency = currenciesRateStringArray.split(currenciesDelimiter).toString();    \r\n            var currencyStringArray = currency.toSlice();\r\n            // Slice the CAD;398.05\r\n            var currencyDelimeter = \";\".toSlice();\r\n            \r\n            bytes32 sigle = stringToBytes32(currencyStringArray.split(currencyDelimeter).toString());\r\n            string memory price = currencyStringArray.split(currencyDelimeter).toString();\r\n            \r\n            rates[sigle] = parseInt(price,2);\r\n            supportedCurrencies[sigle] = true;\r\n        }\r\n        \r\n        getCurrenciesRate(delay);\r\n    }\r\n\r\n    function getCurrenciesRate(uint d) internal {\r\n        bytes32 queryId = oraclize_query(d, \"URL\", \"json(https://latude-currency-api.herokuapp.com/currency).rates\");\r\n        validIds[queryId] = true;\r\n    }\r\n\r\n    function getCurrencyRate(bytes32 _currency) public view returns(uint) {\r\n        return rates[_currency];\r\n    }\r\n    \r\n    function isCurrencyAllowed(bytes32 _currency) public view returns(bool) {\r\n        return supportedCurrencies[_currency];\r\n    }\r\n\r\n    function setDelay(uint newDelay) onlyOwner public {\r\n        delay = newDelay;\r\n    }\r\n    \r\n    function stringToBytes32(string memory source) private pure returns (bytes32 result) {\r\n        bytes memory tempEmptyStringTest = bytes(source);\r\n        if (tempEmptyStringTest.length == 0) {\r\n           return 0x0;\r\n        }\r\n\r\n        assembly {\r\n            result := mload(add(source, 32))\r\n        }\r\n    }\r\n}",
  "sourcePath": "C:\\Users\\Francis\\Desktop\\latude-dev-portal\\contracts\\ExchangeRates.sol",
  "compiler": {
    "name": "solc",
    "version": "0.4.18+commit.9cf6e910.Emscripten.clang"
  },
  "schemaVersion": "1.0.1",
  "updatedAt": "2018-01-20T20:41:40.897Z"
}