{
  "contractName": "Property",
  "abi": [
    {
      "constant": true,
      "inputs": [],
      "name": "name",
      "outputs": [
        {
          "name": "",
          "type": "string"
        }
      ],
      "payable": false,
      "stateMutability": "view",
      "type": "function"
    },
    {
      "constant": false,
      "inputs": [],
      "name": "terminate",
      "outputs": [],
      "payable": false,
      "stateMutability": "nonpayable",
      "type": "function"
    },
    {
      "constant": false,
      "inputs": [
        {
          "name": "newOwner",
          "type": "address"
        }
      ],
      "name": "setOwner",
      "outputs": [],
      "payable": false,
      "stateMutability": "nonpayable",
      "type": "function"
    },
    {
      "constant": true,
      "inputs": [],
      "name": "owner",
      "outputs": [
        {
          "name": "",
          "type": "address"
        }
      ],
      "payable": false,
      "stateMutability": "view",
      "type": "function"
    },
    {
      "constant": true,
      "inputs": [],
      "name": "authority",
      "outputs": [
        {
          "name": "",
          "type": "address"
        }
      ],
      "payable": false,
      "stateMutability": "view",
      "type": "function"
    },
    {
      "constant": true,
      "inputs": [
        {
          "name": "",
          "type": "uint256"
        },
        {
          "name": "",
          "type": "uint256"
        }
      ],
      "name": "stays",
      "outputs": [
        {
          "name": "startTime",
          "type": "uint256"
        },
        {
          "name": "endTime",
          "type": "uint256"
        },
        {
          "name": "user",
          "type": "address"
        }
      ],
      "payable": false,
      "stateMutability": "view",
      "type": "function"
    },
    {
      "constant": true,
      "inputs": [
        {
          "name": "assetId",
          "type": "uint256"
        },
        {
          "name": "from",
          "type": "uint256"
        },
        {
          "name": "to",
          "type": "uint256"
        }
      ],
      "name": "getNodesBetween",
      "outputs": [
        {
          "name": "",
          "type": "uint256[]"
        }
      ],
      "payable": false,
      "stateMutability": "view",
      "type": "function"
    },
    {
      "inputs": [
        {
          "name": "_name",
          "type": "string"
        },
        {
          "name": "_owner",
          "type": "address"
        },
        {
          "name": "_exchangeContract",
          "type": "address"
        }
      ],
      "payable": true,
      "stateMutability": "payable",
      "type": "constructor"
    },
    {
      "anonymous": false,
      "inputs": [
        {
          "indexed": false,
          "name": "asset",
          "type": "uint256"
        },
        {
          "indexed": false,
          "name": "price",
          "type": "uint256"
        },
        {
          "indexed": false,
          "name": "currency",
          "type": "bytes32"
        }
      ],
      "name": "AssetCreated",
      "type": "event"
    },
    {
      "anonymous": false,
      "inputs": [
        {
          "indexed": false,
          "name": "asset",
          "type": "uint256"
        },
        {
          "indexed": false,
          "name": "id",
          "type": "uint256"
        },
        {
          "indexed": false,
          "name": "duration",
          "type": "uint256"
        }
      ],
      "name": "StayCreated",
      "type": "event"
    },
    {
      "constant": false,
      "inputs": [
        {
          "name": "price",
          "type": "uint256"
        },
        {
          "name": "currency",
          "type": "bytes32"
        }
      ],
      "name": "addAsset",
      "outputs": [],
      "payable": false,
      "stateMutability": "nonpayable",
      "type": "function"
    },
    {
      "constant": true,
      "inputs": [
        {
          "name": "id",
          "type": "uint256"
        }
      ],
      "name": "getAsset",
      "outputs": [
        {
          "name": "",
          "type": "uint256"
        },
        {
          "name": "",
          "type": "uint256"
        },
        {
          "name": "",
          "type": "bytes32"
        }
      ],
      "payable": false,
      "stateMutability": "view",
      "type": "function"
    },
    {
      "constant": false,
      "inputs": [
        {
          "name": "assetId",
          "type": "uint256"
        },
        {
          "name": "startTime",
          "type": "uint256"
        },
        {
          "name": "endTime",
          "type": "uint256"
        }
      ],
      "name": "addStay",
      "outputs": [],
      "payable": true,
      "stateMutability": "payable",
      "type": "function"
    },
    {
      "constant": true,
      "inputs": [
        {
          "name": "assetId",
          "type": "uint256"
        },
        {
          "name": "stayId",
          "type": "uint256"
        }
      ],
      "name": "getStay",
      "outputs": [
        {
          "name": "",
          "type": "uint256"
        },
        {
          "name": "",
          "type": "uint256"
        },
        {
          "name": "",
          "type": "address"
        }
      ],
      "payable": false,
      "stateMutability": "view",
      "type": "function"
    },
    {
      "constant": true,
      "inputs": [
        {
          "name": "assetId",
          "type": "uint256"
        },
        {
          "name": "from",
          "type": "uint256"
        },
        {
          "name": "to",
          "type": "uint256"
        }
      ],
      "name": "getStays",
      "outputs": [
        {
          "name": "",
          "type": "uint256[]"
        }
      ],
      "payable": false,
      "stateMutability": "view",
      "type": "function"
    },
    {
      "constant": true,
      "inputs": [
        {
          "name": "assetId",
          "type": "uint256"
        },
        {
          "name": "stayDurationInDays",
          "type": "uint256"
        }
      ],
      "name": "getStayPriceInWei",
      "outputs": [
        {
          "name": "",
          "type": "uint256"
        }
      ],
      "payable": false,
      "stateMutability": "view",
      "type": "function"
    },
    {
      "constant": true,
      "inputs": [],
      "name": "numberOfAssets",
      "outputs": [
        {
          "name": "",
          "type": "uint256"
        }
      ],
      "payable": false,
      "stateMutability": "view",
      "type": "function"
    }
  ],
  "bytecode": "0x606060405260405162001898380380620018988339810160405280805182019190602001805190602001909190805190602001909190505033600160006101000a81548173ffffffffffffffffffffffffffffffffffffffff021916908373ffffffffffffffffffffffffffffffffffffffff16021790555062000097826200013b640100000000026200081a176401000000009004565b620000d8600860009054906101000a900473ffffffffffffffffffffffffffffffffffffffff1662000219640100000000026200150e176401000000009004565b8260049080519060200190620000f09291906200025c565b5080600760006101000a81548173ffffffffffffffffffffffffffffffffffffffff021916908373ffffffffffffffffffffffffffffffffffffffff1602179055505050506200030b565b600160009054906101000a900473ffffffffffffffffffffffffffffffffffffffff1673ffffffffffffffffffffffffffffffffffffffff163373ffffffffffffffffffffffffffffffffffffffff161415156200019857600080fd5b600073ffffffffffffffffffffffffffffffffffffffff168173ffffffffffffffffffffffffffffffffffffffff1614151515620001d557600080fd5b80600160006101000a81548173ffffffffffffffffffffffffffffffffffffffff021916908373ffffffffffffffffffffffffffffffffffffffff16021790555050565b806000806101000a81548173ffffffffffffffffffffffffffffffffffffffff021916908373ffffffffffffffffffffffffffffffffffffffff16021790555050565b828054600181600116156101000203166002900490600052602060002090601f016020900481019282601f106200029f57805160ff1916838001178555620002d0565b82800160010185558215620002d0579182015b82811115620002cf578251825591602001919060010190620002b2565b5b509050620002df9190620002e3565b5090565b6200030891905b8082111562000304576000816000905550600101620002ea565b5090565b90565b61157d806200031b6000396000f3006060604052600436106100d0576000357c0100000000000000000000000000000000000000000000000000000000900463ffffffff16806306fdde03146100d55780630c08bf88146101635780630fa467a61461017857806313af4035146101a25780634fa756a9146101db578063553fb24c146102555780637ec511fd146102df5780638da5cb5b1461030f578063bf7e214f14610364578063c77b7c91146103b9578063c804b49614610433578063eac8f5b8146104bd578063edf49c091461050a578063f904f10e14610533575b600080fd5b34156100e057600080fd5b6100e8610573565b6040518080602001828103825283818151815260200191508051906020019080838360005b8381101561012857808201518184015260208101905061010d565b50505050905090810190601f1680156101555780820380516001836020036101000a031916815260200191505b509250505060405180910390f35b341561016e57600080fd5b610176610611565b005b6101a060048080359060200190919080359060200190919080359060200190919050506106a8565b005b34156101ad57600080fd5b6101d9600480803573ffffffffffffffffffffffffffffffffffffffff1690602001909190505061081a565b005b34156101e657600080fd5b61020560048080359060200190919080359060200190919050506108f6565b604051808481526020018381526020018273ffffffffffffffffffffffffffffffffffffffff1673ffffffffffffffffffffffffffffffffffffffff168152602001935050505060405180910390f35b341561026057600080fd5b61028860048080359060200190919080359060200190919080359060200190919050506109bc565b6040518080602001828103825283818151815260200191508051906020019060200280838360005b838110156102cb5780820151818401526020810190506102b0565b505050509050019250505060405180910390f35b34156102ea57600080fd5b61030d6004808035906020019091908035600019169060200190919050506109d8565b005b341561031a57600080fd5b610322610bd2565b604051808273ffffffffffffffffffffffffffffffffffffffff1673ffffffffffffffffffffffffffffffffffffffff16815260200191505060405180910390f35b341561036f57600080fd5b610377610bf8565b604051808273ffffffffffffffffffffffffffffffffffffffff1673ffffffffffffffffffffffffffffffffffffffff16815260200191505060405180910390f35b34156103c457600080fd5b6103e36004808035906020019091908035906020019091905050610c1d565b604051808481526020018381526020018273ffffffffffffffffffffffffffffffffffffffff1673ffffffffffffffffffffffffffffffffffffffff168152602001935050505060405180910390f35b341561043e57600080fd5b6104666004808035906020019091908035906020019091908035906020019091905050610c74565b6040518080602001828103825283818151815260200191508051906020019060200280838360005b838110156104a957808201518184015260208101905061048e565b505050509050019250505060405180910390f35b34156104c857600080fd5b6104de6004808035906020019091905050610e67565b604051808481526020018381526020018260001916600019168152602001935050505060405180910390f35b341561051557600080fd5b61051d610ee2565b6040518082815260200191505060405180910390f35b341561053e57600080fd5b61055d6004808035906020019091908035906020019091905050610eef565b6040518082815260200191505060405180910390f35b60048054600181600116156101000203166002900480601f0160208091040260200160405190810160405280929190818152602001828054600181600116156101000203166002900480156106095780601f106105de57610100808354040283529160200191610609565b820191906000526020600020905b8154815290600101906020018083116105ec57829003601f168201915b505050505081565b600160009054906101000a900473ffffffffffffffffffffffffffffffffffffffff1673ffffffffffffffffffffffffffffffffffffffff163373ffffffffffffffffffffffffffffffffffffffff1614151561066d57600080fd5b600160009054906101000a900473ffffffffffffffffffffffffffffffffffffffff1673ffffffffffffffffffffffffffffffffffffffff16ff5b60008083831115156106b957600080fd5b8342111515156106c857600080fd5b6018603c808686038115156106d957fe5b048115156106e357fe5b048115156106ed57fe5b0491506106fa8583610eef565b905080341015151561070b57600080fd5b6107188585868603611053565b6060604051908101604052808581526020018481526020013373ffffffffffffffffffffffffffffffffffffffff16815250600560008781526020019081526020016000206000868152602001908152602001600020600082015181600001556020820151816001015560408201518160020160006101000a81548173ffffffffffffffffffffffffffffffffffffffff021916908373ffffffffffffffffffffffffffffffffffffffff1602179055509050507f5fd35e579007391af559ac73266b7bf47d3906fdf585f5a22cac4930f339093385858460405180848152602001838152602001828152602001935050505060405180910390a15050505050565b600160009054906101000a900473ffffffffffffffffffffffffffffffffffffffff1673ffffffffffffffffffffffffffffffffffffffff163373ffffffffffffffffffffffffffffffffffffffff1614151561087657600080fd5b600073ffffffffffffffffffffffffffffffffffffffff168173ffffffffffffffffffffffffffffffffffffffff16141515156108b257600080fd5b80600160006101000a81548173ffffffffffffffffffffffffffffffffffffffff021916908373ffffffffffffffffffffffffffffffffffffffff16021790555050565b600080600061090361140b565b6005600087815260200190815260200160002060008681526020019081526020016000206060604051908101604052908160008201548152602001600182015481526020016002820160009054906101000a900473ffffffffffffffffffffffffffffffffffffffff1673ffffffffffffffffffffffffffffffffffffffff1673ffffffffffffffffffffffffffffffffffffffff16815250509050806000015181602001518260400151935093509350509250925092565b6109c4611443565b6109cf848484610c74565b90509392505050565b6000600160009054906101000a900473ffffffffffffffffffffffffffffffffffffffff1673ffffffffffffffffffffffffffffffffffffffff163373ffffffffffffffffffffffffffffffffffffffff16141515610a3657600080fd5b600760009054906101000a900473ffffffffffffffffffffffffffffffffffffffff1673ffffffffffffffffffffffffffffffffffffffff16634f69a419836000604051602001526040518263ffffffff167c0100000000000000000000000000000000000000000000000000000000028152600401808260001916600019168152602001915050602060405180830381600087803b1515610ad757600080fd5b6102c65a03f11515610ae857600080fd5b505050604051805190501515610afd57600080fd5b6006805490509050610b0e8161127a565b60068054806001018281610b229190611457565b91600052602060002090600302016000606060405190810160405280858152602001878152602001866000191681525090919091506000820151816000015560208201518160010155604082015181600201906000191690555050507fa87faa3be50d1d26635ba3939fc7cf027ac65bd6a6d1d1437d6d40a52880f40f818484604051808481526020018381526020018260001916600019168152602001935050505060405180910390a1505050565b600160009054906101000a900473ffffffffffffffffffffffffffffffffffffffff1681565b6000809054906101000a900473ffffffffffffffffffffffffffffffffffffffff1681565b6005602052816000526040600020602052806000526040600020600091509150508060000154908060010154908060020160009054906101000a900473ffffffffffffffffffffffffffffffffffffffff16905083565b610c7c611443565b610c84611489565b610c8c611443565b60008085111515610c9c57600080fd5b8585111515610caa57600080fd5b6254600086860311151515610cbe57600080fd5b600360008881526020019081526020016000206000600260008a81526020019081526020016000205481526020019081526020016000206080604051908101604052908160008201548152602001600182015481526020016002820154815260200160038201548152505092505b8483606001511115610d9b5760036000888152602001908152602001600020600084600001518152602001908152602001600020608060405190810160405290816000820154815260200160018201548152602001600282015481526020016003820154815250509250610d2c565b60408051805910610da95750595b90808252806020026020018201604052509150600090505b858360600151101515610e5a5782606001518282815181101515610de157fe5b9060200190602002018181525050600360008881526020019081526020016000206000846000015181526020019081526020016000206080604051908101604052908160008201548152602001600182015481526020016002820154815260200160038201548152505092508080600101915050610dc1565b8193505050509392505050565b6000806000610e746114b2565b600685815481101515610e8357fe5b906000526020600020906003020160606040519081016040529081600082015481526020016001820154815260200160028201546000191660001916815250509050806000015181602001518260400151935093509350509193909250565b6000600680549050905090565b6000610ef96114b2565b600080600085111515610f0b57600080fd5b600686815481101515610f1a57fe5b906000526020600020906003020160606040519081016040529081600082015481526020016001820154815260200160028201546000191660001916815250509250600760009054906101000a900473ffffffffffffffffffffffffffffffffffffffff1673ffffffffffffffffffffffffffffffffffffffff16632387e3e684604001516000604051602001526040518263ffffffff167c0100000000000000000000000000000000000000000000000000000000028152600401808260001916600019168152602001915050602060405180830381600087803b151561100157600080fd5b6102c65a03f1151561101257600080fd5b505050604051805190506103e8806103e8806103e88060648a602001510202020202020281151561103f57fe5b049150848202905080935050505092915050565b60008060008411151561106557600080fd5b60008311151561107457600080fd5b6003600086815260200190815260200160002060006002600088815260200190815260200160002054815260200190815260200160002091506110eb82608060405190810160405290816000820154815260200160018201548152602001600282015481526020016003820154815250508561130b565b15611101576110fc8583868661132d565b611273565b5b83826003015410151561113e57600360008681526020019081526020016000206000836000015481526020019081526020016000209150611102565b6003600086815260200190815260200160002060008360010154815260200190815260200160002090506111dc8260806040519081016040529081600082015481526020016001820154815260200160028201548152602001600382015481525050858584608060405190810160405290816000820154815260200160018201548152602001600282015481526020016003820154815250506113ca565b15156111e757600080fd5b838260010181905550838160000181905550608060405190810160405280836003015481526020018260030154815260200184815260200185815250600360008781526020019081526020016000206000868152602001908152602001600020600082015181600001556020820151816001015560408201518160020155606082015181600301559050505b5050505050565b6080604051908101604052806000815260200160008152602001600081526020016000815250600360008381526020019081526020016000206000808152602001908152602001600020600082015181600001556020820151816001015560408201518160020155606082015181600301559050506000600260008381526020019081526020016000208190555050565b600081836060015110156113225760019050611327565b600090505b92915050565b8183600101819055506080604051908101604052808460030154815260200160008152602001828152602001838152506003600086815260200190815260200160002060008481526020019081526020016000206000820151816000015560208201518160010155604082015181600201556060820151816003015590505081600260008681526020019081526020016000208190555050505050565b600083856040015186606001510111156113e75760009050611403565b816060015183850111156113fe5760009050611403565b600190505b949350505050565b6060604051908101604052806000815260200160008152602001600073ffffffffffffffffffffffffffffffffffffffff1681525090565b602060405190810160405280600081525090565b8154818355818115116114845760030281600302836000526020600020918201910161148391906114d7565b5b505050565b608060405190810160405280600081526020016000815260200160008152602001600081525090565b6060604051908101604052806000815260200160008152602001600080191681525090565b61150b91905b808211156115075760008082016000905560018201600090556002820160009055506003016114dd565b5090565b90565b806000806101000a81548173ffffffffffffffffffffffffffffffffffffffff021916908373ffffffffffffffffffffffffffffffffffffffff160217905550505600a165627a7a723058204bfae265fadaeef4e105191e690d9215072dbae25b1d76571fa255d56b89c9ea0029",
  "source": "pragma solidity ^0.4.18;\r\n\r\nimport \"./Authorization.sol\";\r\nimport \"./PropertyAuthority.sol\";\r\nimport \"./ExchangeRates.sol\";\r\nimport \"./StayLinkedList.sol\";\r\n\r\ncontract Property is Authorization, StayLinkedList {\r\n    string public name;\r\n    mapping(uint => mapping(uint => Stay)) public stays;\r\n    \r\n    // All assets are tracked within this array.\r\n    Asset[] private assets;\r\n    // We need to query an already deployed exhange.\r\n    ExchangeRates private exchangeRates;\r\n    // We need to attach to the good authority\r\n    PropertyAuthority private propertyAuthority;\r\n    event AssetCreated (uint asset, uint price, bytes32 currency);\r\n    event StayCreated (uint asset, uint id, uint duration);\r\n\r\n    // We are using the unix epoch format.\r\n    struct Stay {\r\n        uint startTime;\r\n        uint endTime;\r\n        address user;\r\n    }\r\n\r\n    // Basic information about an asset, more details will be provided by ipfs.\r\n    struct Asset {\r\n        uint id;\r\n        uint price;\r\n        bytes32 currency;\r\n    }\r\n\r\n    function Property(string _name, address _owner, address _exchangeContract) public payable {\r\n        setOwner(_owner);\r\n        setAuthority(propertyAuthority);\r\n        name = _name;\r\n        // Make sure this contract is always calling the same exchange to convert user currency into ETH.\r\n        exchangeRates = ExchangeRates(_exchangeContract);        \r\n    }\r\n\r\n    // Asset management ////////////////\r\n    function addAsset(uint price, bytes32 currency) onlyOwner public {\r\n        require(exchangeRates.isCurrencyAllowed(currency));\r\n\r\n        uint newAssetId = assets.length;\r\n        StayLinkedList.initializeAssetList(newAssetId);\r\n        assets.push(Asset(newAssetId, price, currency));\r\n        AssetCreated(newAssetId, price, currency);\r\n    }\r\n\r\n    function getAsset(uint id) public view returns (uint, uint, bytes32) {\r\n        Asset memory asset = assets[id];\r\n        return (asset.id, asset.price, asset.currency);\r\n    }\r\n\r\n    // Stay management ////////////////\r\n    function addStay(uint assetId, uint startTime, uint endTime) public payable {\r\n        require(endTime > startTime);\r\n        require(now <= startTime);\r\n        \r\n        // Check that duration is legitimate.\r\n        uint stayDurationInDays = (endTime - startTime) / 60 / 60 / 24;\r\n\r\n        // Check if the amount of wei sent is sufficient.\r\n        uint weiPriceForTheStay = getStayPriceInWei(assetId, stayDurationInDays);\r\n        require(msg.value >= weiPriceForTheStay);\r\n\r\n        // Here we'll need to return all surpluses to the paying user\r\n        // msg.value - weiPriceForTheStay -> return to msg.sender\r\n\r\n        // Add the stay within the linked list.\r\n        StayLinkedList.insertNode(assetId, startTime, endTime - startTime);\r\n        \r\n        // Map it within stays.\r\n        stays[assetId][startTime] = Stay(startTime, endTime, msg.sender);\r\n        StayCreated(assetId, startTime, stayDurationInDays);\r\n    }\r\n\r\n    function getStay(uint assetId, uint stayId) public view returns(uint, uint, address) {\r\n        Stay memory stay = stays[assetId][stayId];\r\n        return (stay.startTime, stay.endTime, stay.user);\r\n    }\r\n\r\n    function getStays(uint assetId, uint from, uint to) public view returns(uint[]) {\r\n        return StayLinkedList.getNodesBetween(assetId, from, to);\r\n    }\r\n\r\n    function getStayPriceInWei(uint assetId, uint stayDurationInDays) public view returns(uint) {\r\n        require(stayDurationInDays > 0);\r\n\r\n        Asset memory asset = assets[assetId];\r\n        uint weiPriceForSingleDay = ((asset.price * 100 * 1000 * 1000 * 1000 * 1000 * 1000 * 1000) / exchangeRates.getCurrencyRate(asset.currency));\r\n        uint weiPriceForTheStay = weiPriceForSingleDay * stayDurationInDays;\r\n\r\n        return weiPriceForTheStay;\r\n    }\r\n\r\n    // TODO, this is somewhat obscur since we need this because id are created from 0 - inf\r\n    function numberOfAssets() public view returns(uint) {\r\n        return assets.length;\r\n    }\r\n}",
  "sourcePath": "C:\\Users\\Francis\\Desktop\\latude-owner-portal\\contracts\\Property.sol",
  "compiler": {
    "name": "solc",
    "version": "0.4.19+commit.c4cbbb05.Emscripten.clang"
  },
  "schemaVersion": "2.0.0",
  "updatedAt": "2018-03-17T22:27:17.439Z"
}