{
  "contractName": "PropertyAuthority",
  "abi": [
    {
      "constant": true,
      "inputs": [
        {
          "name": "caller",
          "type": "address"
        },
        {
          "name": "target",
          "type": "address"
        },
        {
          "name": "sig",
          "type": "bytes4"
        }
      ],
      "name": "canCall",
      "outputs": [
        {
          "name": "",
          "type": "bool"
        }
      ],
      "payable": false,
      "stateMutability": "view",
      "type": "function"
    }
  ],
  "bytecode": "0x6060604052341561000f57600080fd5b6101128061001e6000396000f300606060405260043610603f576000357c0100000000000000000000000000000000000000000000000000000000900463ffffffff168063b7009613146044575b600080fd5b3415604e57600080fd5b60bf600480803573ffffffffffffffffffffffffffffffffffffffff1690602001909190803573ffffffffffffffffffffffffffffffffffffffff169060200190919080357bffffffffffffffffffffffffffffffffffffffffffffffffffffffff191690602001909190505060d9565b604051808215151515815260200191505060405180910390f35b60006001905093925050505600a165627a7a723058201ae2b6a554d6a2e17db8c9a3f05d3fb03052c74bee2e16bd24509e887577fe9b0029",
  "source": "pragma solidity ^0.4.18;\r\n\r\nimport \"./Authorization.sol\";\r\n\r\ncontract PropertyAuthority is Authority {\r\n    function canCall(address caller, address target, bytes4 sig) public view returns (bool) {\r\n        return true;\r\n    }\r\n}",
  "sourcePath": "C:\\Users\\Francis\\Desktop\\latude-dev-portal\\contracts\\PropertyAuthority.sol",
  "compiler": {
    "name": "solc",
    "version": "0.4.18+commit.9cf6e910.Emscripten.clang"
  },
  "schemaVersion": "1.0.1",
  "updatedAt": "2018-01-20T20:41:36.614Z"
}