{
  "contractName": "StayLinkedList",
  "abi": [
    {
      "constant": true,
      "inputs": [
        {
          "name": "assetId",
          "type": "uint256"
        },
        {
          "name": "from",
          "type": "uint256"
        },
        {
          "name": "to",
          "type": "uint256"
        }
      ],
      "name": "getNodesBetween",
      "outputs": [
        {
          "name": "",
          "type": "uint256[]"
        }
      ],
      "payable": false,
      "stateMutability": "view",
      "type": "function"
    }
  ],
  "bytecode": "0x6060604052341561000f57600080fd5b61032b8061001e6000396000f300606060405260043610610041576000357c0100000000000000000000000000000000000000000000000000000000900463ffffffff168063c804b49614610046575b600080fd5b341561005157600080fd5b61007960048080359060200190919080359060200190919080359060200190919050506100d0565b6040518080602001828103825283818151815260200191508051906020019060200280838360005b838110156100bc5780820151818401526020810190506100a1565b505050509050019250505060405180910390f35b6100d86102c2565b6100e06102d6565b6100e86102c2565b600080851115156100f857600080fd5b858511151561010657600080fd5b625460008686031115151561011a57600080fd5b6001600088815260200190815260200160002060008060008a81526020019081526020016000205481526020019081526020016000206080604051908101604052908160008201548152602001600182015481526020016002820154815260200160038201548152505092505b84836060015111156101f65760016000888152602001908152602001600020600084600001518152602001908152602001600020608060405190810160405290816000820154815260200160018201548152602001600282015481526020016003820154815250509250610187565b604080518059106102045750595b90808252806020026020018201604052509150600090505b8583606001511015156102b5578260600151828281518110151561023c57fe5b906020019060200201818152505060016000888152602001908152602001600020600084600001518152602001908152602001600020608060405190810160405290816000820154815260200160018201548152602001600282015481526020016003820154815250509250808060010191505061021c565b8193505050509392505050565b602060405190810160405280600081525090565b6080604051908101604052806000815260200160008152602001600081526020016000815250905600a165627a7a7230582010839368247bc3e84c86cacb1745dea621719a3ad5ed4bc562a62504be5cedc90029",
  "source": "pragma solidity ^0.4.18;\r\n\r\ncontract StayLinkedList {\r\n    mapping(uint => uint) internal tails;\r\n    mapping(uint => mapping( uint => Node)) internal lists;\r\n\r\n    struct Node {\r\n        uint previous;\r\n        uint next;\r\n        // Unix epoch format that represent the duration of the stay.\r\n        uint weight;\r\n        // Start date under unix epoch format.\r\n        uint key;\r\n    }\r\n\r\n    function initializeAssetList(uint assetId) internal {\r\n        lists[assetId][0] = Node(0,0,0,0);\r\n        tails[assetId] = 0;\r\n    }\r\n\r\n    function insertNode(uint assetId, uint key, uint weight) internal {\r\n        require(key > 0);\r\n        require(weight > 0);\r\n\r\n        // There's always a tail.\r\n        Node storage currentNode = lists[assetId][tails[assetId]];\r\n\r\n        // Node is the new tail, we stop here.\r\n        if (isTail(currentNode, key)) {\r\n            appendTail(assetId, currentNode, key, weight);\r\n            return;\r\n        }\r\n\r\n        // We go up the list until we find his place.\r\n        while (currentNode.key >= key) {\r\n            currentNode = lists[assetId][currentNode.previous];\r\n        }\r\n\r\n        Node storage nextNode = lists[assetId][currentNode.next];\r\n        require(isInsertable(currentNode, key, weight, nextNode));\r\n\r\n        // Insert node between those two nodes.\r\n        currentNode.next = key;\r\n        nextNode.previous = key;\r\n        lists[assetId][key] = Node(currentNode.key, nextNode.key, weight, key);\r\n    }\r\n\r\n    function getNode(uint assetId, uint key) internal view returns(uint, uint, uint, uint) {\r\n        Node memory node = lists[assetId][key];\r\n        return(node.previous, node.next, node.weight, node.key);\r\n    }\r\n\r\n    // This function is public for us to gather availabilities.\r\n    function getNodesBetween(uint assetId, uint from, uint to) public constant returns(uint[]) {\r\n        require(to > 0);\r\n        require(to > from);\r\n\r\n        // For now we can on check for 64 days.\r\n        require((to - from) <= 64 * 60 * 60 * 24); \r\n\r\n        // Go up the list until we hit something within range.\r\n        Node memory currentNode = lists[assetId][tails[assetId]];\r\n        while (currentNode.key > to) {\r\n            currentNode = lists[assetId][currentNode.previous];\r\n        }\r\n\r\n        uint[] memory nodesBetween = new uint[](64);\r\n        uint index = 0;\r\n        while (currentNode.key >= from) {\r\n            nodesBetween[index] = currentNode.key;\r\n            currentNode = lists[assetId][currentNode.previous];\r\n            index++;\r\n        }\r\n\r\n        return nodesBetween;\r\n    }\r\n\r\n    // Check if node is the current or new tail.\r\n    function isTail(Node node, uint key) private pure returns(bool) {\r\n        if (node.key < key)\r\n            return true;\r\n        \r\n        return false;\r\n    }\r\n\r\n    // Since key and weight are under a unix epoch format we can do this equation. \r\n    function isInsertable(Node previousNode, uint newKey, uint newWeight, Node nextNode) private pure returns(bool) {\r\n        // Does it overlap the previousNode?\r\n        if ((previousNode.key + previousNode.weight) > newKey)\r\n            return false;\r\n        \r\n        // Does it overlap the nextNode?\r\n        if ((newKey + newWeight) > nextNode.key)\r\n            return false;\r\n\r\n        return true;\r\n    }\r\n\r\n    function appendTail(uint assetId, Node storage previousNode, uint key, uint weight) private {\r\n        previousNode.next = key;\r\n        lists[assetId][key] = Node(previousNode.key, 0, weight, key);\r\n        tails[assetId] = key;\r\n    }\r\n}",
  "sourcePath": "C:\\Users\\Francis\\Desktop\\latude-owner-portal\\contracts\\StayLinkedList.sol",
  "compiler": {
    "name": "solc",
    "version": "0.4.19+commit.c4cbbb05.Emscripten.clang"
  },
  "schemaVersion": "2.0.0",
  "updatedAt": "2018-03-17T22:27:10.662Z"
}